:020000040800F2
:1000000000500020F9020008010300080503000861
:10001000090300080D030008110300080000000098
:1000200000000000000000000000000015030008B0
:1000300019030008000000001D030008390D000826
:1000400025030008250300082503000825030008F0
:1000500025030008250300082503000825030008E0
:1000600025030008250300082503000825030008D0
:1000700025030008250300082503000825030008C0
:1000800025030008250300082503000825030008B0
:10009000250300082503000825030008255B000848
:1000A0002503000825030008250300082503000890
:1000B000055B000825030008250300082503000848
:1000C0002503000825030008250300082503000870
:1000D0002503000825030008855B000825030008A8
:1000E0002503000825030008250300082503000850
:1000F0002503000825030008250300082503000840
:10010000250300082503000825030008250300082F
:10011000250300082503000825030008250300081F
:10012000250300082503000825030008250300080F
:1001300000000000000000000000000000000000BF
:1001400000000000000000000000000000000000AF
:10015000000000000000000000000000000000009F
:10016000000000000000000000000000000000008F
:10017000000000000000000000000000000000007F
:10018000000000000000000000000000000000006F
:10019000000000000000000000000000000000005F
:1001A000000000000000000000000000000000004F
:1001B000000000000000000000000000000000003F
:1001C000000000000000000000000000000000002F
:1001D000000000000000000000000000000000001F
:1001E0005FF8E0F100B583B002F0FAFB304B314A22
:1001F0001360314A1360314B314A03E011681960D2
:10020000043304322F498B42F8D32A4B1A682E4B01
:100210009A4204D1284B1A682C4B9A4200D0FEE730
:10022000234B2B4A13602B4A13602B4B02E0002216
:100230001A600433294A9342F9D3254B1B6813B93A
:10024000244B1B6803B1FEE702F0CEFB01A8694610
:1002500002F036FB224C234B1C1BA410002504E0AB
:100260001F4B53F8253098470135AC42F8DC1E4C43
:100270001E4B1C1BA410002504E01B4B53F825301B
:1002800098470135AC42F8DC0198009906F0A4FFCC
:100290000546174C174B1C1BA41004E0013C144BE3
:1002A00053F824309847002CF8DC284602F0DAFA9C
:1002B000BABADECA000000209C0000200000002026
:1002C000F0B40008A000002078563412325476981A
:1002D000A000002014090020A00000201809002020
:1002E0002803000828030008280300089C030008CE
:1002F0009C0300080804000808B5FFF773FF00BF5F
:10030000FEE700BFFEE700BFFEE700BFFEE700BF5D
:10031000FEE700BFFEE700BFFEE700BFFEE700BF4D
:08032000704700BFFEE700BFBB
:10032800C50400088D0B000871340008CD3600089C
:10033800A93700085D3A000825400008F54800087C
:10034800495000082D51000881530008A95400089D
:10035800315500088D570008A55A00082D5C000883
:10036800B55C000815650008CD65000879660008C9
:1003780069690008F16900086D6D0008196F0008C7
:10038800A16F0008B97100086972000801740008BB
:10039800C5740008D50400089D0B000881340008C6
:1003A800DD360008B93700086D3A00083540000806
:1003B80005490008595000083D51000891530008AC
:1003C800B9540008415500089D570008B55A00085F
:1003D8003D5C0008C55C000825650008DD6500086F
:1003E8008966000879690008016A00087D6D0008BF
:1003F800296F0008B16F0008C971000879720008F8
:10040800014B0360704700BF98860008014B0360EA
:10041800704700BF9886000810B50446024B036079
:1004280006F030FF204610BD9886000810B5044637
:10043800FFF7ECFF204606F025FF204610BD00BF61
:100448000122027100218160027B42F001020273E5
:100458000161014A02607047A886000810B5044689
:1004680000F0CEFB214600F0DFFB00F0C9FB00F0F6
:100478000BFC10BD08B5024800F01CFA08BD00BF0F
:10048800A400002000487047A400002038B50446A6
:100498000D46012806D14FF6FF73994202D106484E
:1004A80000F05CFA34B94FF6FF739D4202D102485E
:1004B80000F0A6F938BD00BFA400002008B501204F
:1004C8004FF6FF71FFF7E2FF08BD00BF08B5002037
:1004D8004FF6FF71FFF7DAFF08BD00BF014B03605D
:1004E800704700BF9886000810B50446FFF7F6FF6E
:1004F800204606F0C7FE204610BD00BF10B40324F6
:1005080004718160017B41F0010101730261024ABB
:1005180002605DF8044B7047B8860008014B036021
:10052800704700BFC88600084FF00000704700BF42
:100538004068704710B50446FFF7F0FF204606F004
:10054800A1FE204610BD00BF70B504460368DD68F3
:10055800142006F09BFE0646FFF772FF2046314640
:10056800A84770BD10B529B907482021074A084B8C
:1005780002F002FA0C46086103689B699847214615
:1005880000F0EAFA10BD00BF3887000808880008A4
:100598008487000810B50446054B0360084609B96E
:1005A800FFF770FF60600023A360204610BD00BF06
:1005B800188700088160704738B529B9094836217D
:1005C800094A0A4B02F0D8F90446FFF7F3FF2368FB
:1005D8005B6920469847054620460021FFF7EAFF59
:1005E800284638BD38870008D48700088487000863
:1005F800806830B908B503485A21034A034B02F012
:10060800BBF9704738870008E08600088C87000827
:1006180008B5FFF7EDFF90F90430042B05D0034827
:100628006421034A034B02F0A7F908BD3887000884
:10063800388800089C870008014B0360704700BF9A
:100648009886000810B50446FFF7F6FF204606F026
:1006580019FE204610BD00BF10B403240471816048
:10066800017B0261044A026041F001026FF300025B
:1006780002735DF8044B704770880008014B0360F3
:10068800704700BF9088000810B50446024B03600D
:1006980006F0F8FD204610BD90880008C269C068C1
:1006A800824214BF00200120704700BF08B500F047
:1006B800A7FA08BD10B50C46086903681B69984776
:1006C800C0B2042804D1206910B103685B68984758
:1006D80010BD00BF70B50E4615461C46FFF7E6FF75
:1006E80031462A46234600F0C1FB70BD10B582B0E2
:1006F800044602AB03E90600094B0360019B042B87
:1007080005D008483121084A084B02F035F900990C
:1007180004301A460BB106F068FF204602B010BD3F
:100728009088000818890008B88800087C890008A3
:1007380070B584B004460D46012818D14FF6FF73F2
:10074800994214D1104E96E803008DE803000F4833
:100758009DE80600FFF7CAFF02AB083696E80300DB
:1007680083E803000A4893E80600FFF7BFFF44B98F
:100778004FF6FF739D4204D1064B054A1360034AA6
:10078800136004B070BD00BF98880008E000002026
:10079800D80000209088000838B50C46154603E0BC
:1007A80054F8040B06F06EFDAC42F9D338BD00BF17
:1007B80010B5044603683BB1426A61690432FFF729
:1007C800EBFF206806F05EFD204610BD10B504461C
:1007D800034B40F8043BFFF7EBFF204610BD00BF7A
:1007E8008088000810B50446044B40F8043BFFF726
:1007F800DFFF204606F046FD204610BD8088000831
:1008080010B50446044B0360044B83600C30FFF7BB
:10081800CFFF204610BD00BFB088000880880008C0
:1008280010B50446FFF7ECFF204606F02BFD2046E6
:1008380010BD00BF10B50446C06806F023FD63690B
:100848001A1D62615B68E36003F500722261A360B0
:1008580010BD00BF38B5044628E004F10800FFF7D2
:100868001DFF0028F9D163691D6804F10C00836835
:100878000269043A934202D00433836001E0FFF72F
:10088800D9FF1DB120462946FFF714FF95F904301A
:10089800B3F1FF3F01D1002323712B7B13F0010F2C
:1008A80004D01DB12B685B68284698472379002B34
:1008B800D3D138BD08B5FFF7CDFF08BD38B50C4614
:1008C800154605E04FF4007006F0E0FC44F8040B10
:1008D800AC42F7D338BD00BF2DE9F04383B00446DE
:1008E8000F46CB095D1C0822009203330193934203
:1008F80001D901AB00E06B4618686060B0F1804F29
:1009080001D306F0E0FC800006F0C0FC80462060C1
:100918006668761B760800EB860909EB8505204694
:1009280049462A46FFF7CAFFC4F8149058F826200B
:10093800E26002F5007323612B1F636255F8043CE3
:10094800E36103F500712162A26007F07F0703EB02
:100958008703A36103B0BDE8F08300BFF0B58FB093
:1009680006462E4B0360012303710024049405946A
:1009780006940794089409940A940B940C940D9483
:1009880004A82146FFF7A8FF06F10C05F4606C6087
:10099800AC60EC602C616C61AC61EC612C626C62E7
:1009A80028462146FFF798FF049B002B2DD005F120
:1009B8000807AB680093EB6801932B6902936B6996
:1009C800039306AC94E80F0087E80F009DE80F003A
:1009D80084E80F0005F1180EAB690093EB690193E9
:1009E8002B6A02936B6A03930AAC94E80F008EE8B3
:1009F8000F009DE80F0084E80F00F368049AF26086
:100A080004936B68059A6A60059304A8FFF7D0FE03
:100A1800034BB36030460FB0F0BD00BFB08800088C
:100A2800808800082DE9F04782B0044601911746F6
:100A3800406A6269831A9B105E1C06EB010A6368B0
:100A4800B3EB4A0F22D92568CAEB03035B089B0066
:100A58000FB1890000E000210B441D44AA4209D9C6
:100A68000430831A99083ED0284611461A4606F0E3
:100A7800BCFD38E0031D05EB86009B1A990832D0AF
:100A8800C01A11461A4606F0B0FD2CE0221D994204
:100A980000D901AA1268134403F10208B8F1804F83
:100AA80001D306F010FC4FEA880006F0EFFB814600
:100AB800CAEB08035B089B0017B1019DAD0000E07D
:100AC80000251D444D446169626A0432521A930834
:100AD80002D0284606F089FD206806F0D3FBC4F84A
:100AE8000090C4F8048065612B68E36003F5007327
:100AF800236106F18043013B05EB8302626255F8EE
:100B08002330E36103F50073236202B0BDE8F08788
:100B180070B504460D46436A02689A1A4368A3EB07
:100B2800A203012B03D801210022FFF77BFF666A8D
:100B38004FF4007006F0AAFB7060A3692A6803B13D
:100B48001A60636A1A1D62625B68E36103F50072EA
:100B58002262A36170BD00BF00B583B001910C3063
:100B68008269036A043B9A4205D002B11160836925
:100B78000433836102E001A9FFF7CAFF03B05DF8FF
:100B880004FB00BF08B501204FF6FF71FFF7D0FD49
:100B980008BD00BF08B500204FF6FF71FFF7C8FD7C
:100BA80008BD00BF014B0360704700BF988600086E
:100BB80010B50446FFF7F6FF204606F063FB204613
:100BC80010BD00BF30B4042505718160017B41F080
:100BD800010101730361034B03604261826130BC10
:100BE800704700BFA0890008044A026000224260E2
:100BF80000F108018160C16002617047B089000896
:100C0800084B1B685BB910B5142006F03FFB04467F
:100C1800FFF7EAFF034B1C60024B186810BD014B3D
:100C280018687047E80000204160704708B50869F7
:100C38000368DB68984708BD10B50C4601F062FFF1
:100C48000D4B1B6803FB04F10C4BA3FB01239B0911
:100C5800013BB3F1807F09D2094A5360F021094B67
:100C680083F8231000239360072313600022054BA9
:100C780083F8232010BD00BF30000020D34D621040
:100C880010E000E000ED00E008B5034642680AB94C
:100C98000A22426018465968FFF7CEFF08BD00BF18
:100CA80038B50C460D68084606F008FB204606F0E5
:100CB800E9FA284638BD00BFF8B54268036913440D
:100CC8000361054655F8083FAB422FD099688B69F8
:100CD8009A1A8A61002A29DC2E462F468368002446
:100CE80001E01B6801349F42FBD1012C05D98368C0
:100CF8001B689C68A3699A1AA2610446FFF796FFCD
:100D0800A768384606F0DAFA384606F0BBFAA06853
:100D180009E081688B694BB92046FFF787FF3046A9
:100D28003946FFF7BDFF0746A842F2D1F8BD00BF1C
:100D380010B5054C01232370FFF762FFFFF7BCFFD6
:100D48000023237010BD00BF5401002070B50D466C
:100D580016460C2006F09AFA044620B100230360D8
:100D68004360336883602046294606F0A0FA20468F
:100D780070BD00BFF0B583B00646019102F0B2FC29
:100D8800354655F8084FAC4257D0A3689969019A7F
:100D98009369994215DB25460C2006F077FA03463D
:100DA80020B1002202604260019A826018462946FA
:100DB80006F07DFAA2689369019989695B1A9361C3
:100DC8004AE05B1A93612068012406E08868936909
:100DD80080691B1A9361086801340146A84206D04D
:100DE800836898699369984203DB002302E0002333
:100DF80000E00123002BE9D106F10807384601AAD3
:100E0800FFF7A4FF3946B368002201E01B680132EE
:100E18009942FBD1013494421ED203689D4205D108
:100E28000F48BA210F4A104B01F0A6FD9A68936942
:100E3800019989695B1A93610EE0B4680C2006F089
:100E480025FA034620B1002202604260019A8260BE
:100E58001846214606F02BFA02F05AFC03B0F0BD02
:100E6800E8890008B8890008388A00082DE9F041A7
:100E780080460F4616461D461C2006F007FA044613
:100E8800394632462B46FFF79DFE1CB140462146A7
:100E9800FFF770FFBDE8F08138B50546006803E04C
:100EA800046806F0EFF920468542F9D138BD00BF45
:100EB80010B50446034B40F8083BFFF7EDFF20460A
:100EC80010BD00BFB089000810B50446FFF7F0FF59
:100ED800204606F0D7F9204610BD00BF38B50446B5
:100EE800057B032D33D8DFE805F002020B1FFFF75F
:100EF8007FFB90F90430012B29D10223237326E0CC
:100F0800FFF776FB90F90430032B06D12046FFF754
:100F18006FFB8368012B02D102E0002300E000236D
:100F2800ABB10323237312E0FFF762FB90F904309F
:100F3800042B06D12046FFF76BFB8368012B02D1F7
:100F480002E0002300E000230BB102232373237B7C
:100F5800AB4218D0022B02D0032B06D013E0206935
:100F6800E189002204F044FB0DE023689B692046D8
:100F78009847012162692346FFF7ACFB2069E189A4
:100F8800012204F035FB4FF0010038BD10B50446CE
:100F9800024B0360FFF7C2FA204610BD588A0008CA
:100FA80010B50446044B0360FFF7B8FA204606F074
:100FB80069F9204610BD00BF588A000870B504467C
:100FC8000E4615460021FFF7E5FA054B236000237E
:100FD8002373E681256164236361204670BD00BFE9
:100FE800588A000808B5FFF7AFFA08BD10B50446DF
:100FF800B0F5E06F0FD0B0F5C06F0CD0B0F5A06FB2
:1010080009D0B0F5806F06D0B0F5407F03D0054811
:10101800632101F0D5FC44F0BF6444F40034024B72
:10102800DC6010BD788A000800ED00E010B50446C9
:10103800C378012B03D92048752101F0C1FC6378DE
:101048000F2B03D91C48762101F0BAFCA3780F2B8B
:1010580003D91948772101F0B3FCE37803B3174BA0
:10106800DA68D243C2F30222C2F104000F2323FA42
:1010780002F1637803FA00F2A3780B4013431B01D3
:101088002278DBB20E490A4482F8003323785809E3
:1010980003F01F03012202FA03F341F8203010BDC8
:1010A80023785A0903F01F030121994002F1200314
:1010B800034A42F8231010BD788A000800ED00E0CA
:1010C80000E100E010B5044603792BB1042B03D0EE
:1010D80030486A2101F074FC6379082B07D00C2B87
:1010E80005D0102B03D02B486B2101F069FC226836
:1010F800130D1B0503B91AB926486C2101F060FCD1
:10110800A379012B03D923486D2101F059FCA37958
:10111800002B33D0204B1A68216822EA01021A609A
:101128005A68216822EA01025A60227902F1804253
:1011380002F5823210682168014311609A682168BB
:1011480022EA01029A60DA68216822EA0102DA607A
:101158006379102B09D1104B996822680A439A6069
:10116800D96822680A43DA6010BD03F1804303F5A9
:101178008233196822680A431A6010BD237903F183
:10118800804303F582331A68216822EA01021A6053
:1011980010BD00BF008B00080004014010B50446D4
:1011A800431E012B33D9042831D008282FD010280A
:1011B8002DD020282BD0402829D0802827D0B0F542
:1011C800807F24D0B0F5007F21D0B0F5806F1ED08D
:1011D800B0F5006F1BD0B0F5805F18D0B0F5005F98
:1011E80015D0B0F5804F12D0B0F5004F0FD0B0F544
:1011F800803F0CD0B0F5003F09D0B0F5802F06D065
:10120800B0F5002F03D00848E52101F0D9FB074AC3
:10121800136823405269224202D01BB9002010BD36
:10122800002010BD012010BD008B00080004014003
:1012380010B50446030D1B0503B918B90348FC2172
:1012480001F0BEFB024B5C6110BD00BF008B0008C3
:1012580000040140F8B505460C46474B98421BD0A0
:1012680003F58063984217D003F58063984213D042
:1012780003F5806398420FD003F5806398420BD042
:1012880003F58063984207D003F58063984203D042
:101298003A48B22101F094FBE3788BB1042B0FD0CC
:1012A800282B0DD0482B0BD0142B09D0102B07D08E
:1012B8001C2B05D0182B03D03048B32101F080FB3C
:1012C80023881BB92D48B42101F07AFBE37803F099
:1012D8000F06304613F0100F0AD0A378013BDBB29B
:1012E800022B03D92548BB2101F06AFBA0783043C3
:1012F8002378E3B12E68002216E001239340218869
:10130800194099420FD197000F21B94026EA0106EA
:1013180000FA07F10E43E178282901D16B6102E058
:10132800482900D12B610132072AE6D92E6023888B
:10133800FF2B20D96F6800211AE001F10802012370
:10134800934022881A409A4211D14FEA810E0F2207
:1013580002FA0EF627EA060200FA0EF71743E278B9
:10136800282A00D16B61E278482A00D12B6101312B
:101378000729E2D96F60F8BD00080140948B000886
:1013880038B504460D462A4B98421CD003F58063B5
:10139800984218D003F58063984214D003F580630F
:1013A800984210D003F5806398420CD003F580630F
:1013B800984208D003F58063984204D01D484FF442
:1013C8008F7101F0FDFA6B1E9BB2012B28D9042DF9
:1013D80026D0082D24D0102D22D0202D20D0402D0D
:1013E8001ED0802D1CD0B5F5807F19D0B5F5007FB3
:1013F80016D0B5F5806F13D0B5F5006F10D0B5F5E0
:10140800805F0DD0B5F5005F0AD0B5F5804F07D0E5
:10141800B5F5004F04D0074840F21F1101F0D0FA8B
:10142800A3682B4201D0012038BD002038BD00BF81
:1014380000080140948B000870B504460D46164616
:101448002C4B98421CD003F58063984218D003F5C2
:101458008063984214D003F58063984210D003F556
:10146800806398420CD003F58063984208D003F556
:101478008063984204D0204840F28D1101F0A0FA10
:101488006B1E9BB2012B28D9042D26D0082D24D001
:10149800102D22D0202D20D0402D1ED0802D1CD0E4
:1014A800B5F5807F19D0B5F5007F16D0B5F5806FFA
:1014B80013D0B5F5006F10D0B5F5805F0DD0B5F538
:1014C800005F0AD0B5F5804F07D0B5F5004F04D0BE
:1014D80009484FF4C77101F073FA012E04D9064880
:1014E80040F28F1101F06CFA0EB1256170BD656193
:1014F80070BD00BF00080140948B000838B5054650
:101508000C46062804D9104840F2652101F058FA23
:101518000F2C04D90C4840F2662101F051FA04F06E
:10152800030292000F209040A108084B023153F8A3
:10153800214024EA000043F8210053F82100954097
:10154800054343F8215038BD948B00080000014042
:1015580010B4294B5B6803F00C03042B05D0082B4F
:1015680006D013BB254B036021E0244B03601EE02B
:10157800214A53685268C3F38343023312F4803F0D
:1015880004D11F4A02FB03F3036010E01A4A5268B1
:1015980012F4003F04D01A4A02FB03F3036006E08A
:1015A800164A02FB03F3036001E0144B0360124A7E
:1015B8005368C3F30313134CE15CC9B20368CB400F
:1015C80043605168C1F30221615CC9B223FA01F199
:1015D80081605168C1F3C221615CC9B2CB40C3606C
:1015E8005268C2F3813208498A5CD2B2B3FBF2F383
:1015F80003615DF8044B70470010024000127A0046
:1016080000093D00080000200400002038B5044609
:101618000D460E4B034003B920B90D4840F24A412C
:1016280001F0CEF9012D04D9094840F24B4101F0EF
:10163800C7F925B1074B9A6914439C6138BD054A1F
:10164800936923EA0404946138BD00BF0200C0FF17
:10165800288C00080010024038B504460D460E4B91
:10166800184200D120B90D4840F2694101F0A8F9AB
:10167800012D04D9094840F26A4101F0A1F925B1C8
:10168800074BDA691443DC6138BD054AD36923EA9C
:101698000404D46138BD00BF00360181288C0008DD
:1016A8000010024038B504460D460E4B034003B9FE
:1016B80020B90D4840F2A44101F082F9012D04D966
:1016C800094840F2A54101F07BF925B1074BDA68DA
:1016D8001443DC6038BD054AD36823EA0404D460A7
:1016E80038BD00BF0200C0FF288C0008001002406F
:1016F80038B504460D460E4B184200D120B90D48A6
:1017080040F2C34101F05CF9012D04D9094840F2C7
:10171800C44101F055F925B1074B1A6914431C61FE
:1017280038BD054A136923EA0404146138BD00BFB3
:1017380000360181288C00080010024010B50446CC
:101748001C4B98420BD0A3F57843984207D003F579
:101758008063984203D018487A2101F031F9154B7B
:101768009C420AD14FF480500121FFF79BFF4FF4B0
:1017780080500021FFF796FF10BD104B9C420AD104
:101788004FF480400121FFF7B3FF4FF48040002160
:10179800FFF7AEFF10BD0A4B9C4209D14FF4004041
:1017A8000121FFF7A5FF4FF400400021FFF7A0FF3C
:1017B80010BD00BF00300140B88C00080038004060
:1017C800003C00402DE9F04105460C46464B984246
:1017D8000BD0A3F57843984207D003F5806398426D
:1017E80003D04248A32101F0EBF8238863B1B3F595
:1017F800806F09D0B3F5004F06D0B3F5404F03D042
:101808003A48A62101F0DCF86388B3F5827F04D05A
:101818001BB13648A72101F0D3F8A388B3F5006FB0
:1018280004D01BB13148A82101F0CAF8E3882BB1D4
:10183800022B03D02D48A92101F0C2F82389012BDE
:1018480003D92A48AA2101F0BBF86389B3F5007FC0
:1018580004D01BB12548AB2101F0B2F8A3898BB1A4
:10186800082B0FD0102B0DD0182B0BD0202B09D004
:10187800282B07D0302B05D0382B03D01B48AC21A0
:1018880001F09EF8E3892BB1802B03D01748AD21D6
:1018980001F096F8238A1BB91448AE2101F090F89C
:1018A8002B8803F4415720886688A188B4F80680FD
:1018B8002289B4F80AC0A389B4F80EE0304308437B
:1018C80048EA000111434CEA01021A434EEA0203B6
:1018D8003B432B80AB8B23F400631B041B0CAB83B3
:1018E800238A2B82BDE8F08100300140B88C0008C3
:1018F80038B504460D46124B98420CD0A3F57843F0
:10190800984208D003F58063984204D00D4840F20D
:10191800B71101F055F8012D04D90A484FF4DC71CC
:1019280001F04EF82DB123889BB243F04003238089
:1019380038BD238823F040031B041B0C238038BDCB
:1019480000300140B88C000838B504460D46094BF4
:1019580098420CD0A3F57843984208D003F58063E9
:10196800984204D0044840F23A2101F029F8A581B0
:1019780038BD00BF00300140B88C000810B50446DF
:10198800094B98420CD0A3F57843984208D003F548
:101998008063984204D0054840F24A2101F010F8CB
:1019A800A08980B210BD00BF00300140B88C00088B
:1019B80038B505460C46164B98420CD0A3F578432B
:1019C800984208D003F58063984204D0114840F249
:1019D800163100F0F5FF802C12D0402C10D0202CAE
:1019E8000ED0102C0CD0082C0AD0042C08D0022CB5
:1019F80006D0012C04D0074840F2173100F0E0FF70
:101A08002B891C4201D0012038BD002038BD00BF01
:101A180000300140B88C000810B50446914B98423C
:101A280042D0B0F1804F3FD0A3F5943398423BD0D9
:101A380003F58063984237D003F58063984233D02A
:101A480003F5806398422FD003F5806398422BD02A
:101A580003F59033984227D003F5C053984223D01A
:101A680003F5806398421FD003F5806398421BD02A
:101A7800A3F59E33984217D003F58063984213D09C
:101A880003F5806398420FD003F5903398420BD04A
:101A980003F58063984207D003F58063984203D02A
:101AA80071487D2100F08CFF6E4B9C420AD14FF4A7
:101AB80000600121FFF7F6FD4FF400600021FFF7F9
:101AC800F1FD10BDB4F1804F08D101200146FFF7A8
:101AD8000FFE01200021FFF70BFE10BD634B9C4257
:101AE80008D102200121FFF703FE02200021FFF7A1
:101AF800FFFD10BD5E4B9C4208D104200121FFF779
:101B0800F7FD04200021FFF7F3FD10BD594B9C425F
:101B180008D108200121FFF7EBFD08200021FFF77D
:101B2800E7FD10BD544B9C4208D110200121FFF75E
:101B3800DFFD10200021FFF7DBFD10BD4F4B9C425D
:101B480008D120200121FFF7D3FD20200021FFF735
:101B5800CFFD10BD4A4B9C420AD14FF400500121E1
:101B6800FFF7A0FD4FF400500021FFF79BFD10BDCB
:101B7800444B9C420AD14FF400200121FFF792FD0B
:101B88004FF400200021FFF78DFD10BD3E4B9C4215
:101B98000AD14FF480100121FFF784FD4FF4801023
:101BA8000021FFF77FFD10BD384B9C420AD14FF44E
:101BB80000100121FFF776FD4FF400100021FFF718
:101BC80071FD10BD324B9C4208D140200121FFF726
:101BD8008FFD40200021FFF78BFD10BD2D4B9C424F
:101BE80008D180200121FFF783FD80200021FFF725
:101BF8007FFD10BD284B9C420AD14FF48070012113
:101C0800FFF776FD4FF480700021FFF771FD10BDDE
:101C1800224B9C420AD14FF480300121FFF742FD4C
:101C28004FF480300021FFF73DFD10BD1C4B9C4256
:101C38000AD14FF400300121FFF734FD4FF4003092
:101C48000021FFF72FFD10BD164B9C4209D14FF420
:101C580080200121FFF726FD4FF480200021FFF7A7
:101C680021FD10BD002C0140488D000800040040F3
:101C780000080040000C0040001000400014004024
:101C880000340140004C0140005001400054014024
:101C980000180040001C00400020004000400140A7
:101CA800004401400048014038B504460D46524BF7
:101CB800984242D0B0F1804F3FD0A3F59433984278
:101CC8003BD003F58063984237D003F58063984290
:101CD80033D003F5806398422FD003F58063984290
:101CE8002BD003F59033984227D003F5C053984280
:101CF80023D003F5806398421FD003F58063984290
:101D08001BD0A3F59E33984217D003F58063984201
:101D180013D003F5806398420FD003F590339842AF
:101D28000BD003F58063984207D003F5806398428F
:101D380003D03248E72100F043FE6B885BB1102BDB
:101D480009D0202B07D0402B05D0602B03D02B487F
:101D5800E82100F035FEEB884BB1B3F5807F06D063
:101D6800B3F5007F03D02548E92100F029FE238838
:101D78009BB2214A944212D002F5006294420ED0DE
:101D8800B4F1804F0BD0A2F59832944207D002F5F7
:101D98008062944203D002F58062944203D123F01A
:101DA80070036A881343164A944208D002F5806289
:101DB800944204D023F440739BB2EA8813432380EF
:101DC800AB88A3852B8823850B4B9C420FD003F54A
:101DD80000639C420BD003F540639C4207D003F597
:101DE80080639C4203D003F580639C4201D12B7A27
:101DF80023860123A38238BD002C0140488D0008AA
:101E0800001000404FF6FF73838000230380C380D7
:101E180043800372704700BF38B504460D462E4B09
:101E2800984243D0B0F1804F40D0A3F59433984204
:101E38003CD003F58063984238D003F5806398421C
:101E480034D003F58063984230D003F5806398421C
:101E58002CD003F59033984228D003F5C05398420C
:101E680024D003F58063984220D003F5806398421C
:101E78001CD0A3F59E33984218D003F5806398428E
:101E880014D003F58063984210D003F5903398423C
:101E98000CD003F58063984208D003F5806398421C
:101EA80004D00E4840F2293100F08AFD012D04D9F2
:101EB8000A4840F22A3100F083FD2DB123889BB2F5
:101EC80043F00103238038BD238823F001031B045A
:101ED8001B0C238038BD00BF002C0140488D000832
:101EE80070B504460D461646314B984243D0B0F1C2
:101EF800804F40D0A3F5943398423CD003F58063DB
:101F0800984238D003F58063984234D003F5806353
:101F1800984230D003F5806398422CD003F5903373
:101F2800984228D003F5C053984224D003F5806323
:101F3800984220D003F5806398421CD0A3F59E33C5
:101F4800984218D003F58063984214D003F5806353
:101F5800984210D003F5903398420CD003F5806373
:101F6800984208D003F58063984204D0114840F2A3
:101F78006B3100F025FD15F47F4F00D125B90D48D0
:101F88004FF45B7100F01CFD012E04D9094840F2A2
:101F98006D3100F015FD26B1A3899BB21D43A581C3
:101FA80070BDA389ED43ADB21D40A58170BD00BFD2
:101FB800002C0140488D000838B504460D46344BC6
:101FC800984243D0B0F1804F40D0A3F59433984263
:101FD8003CD003F58063984238D003F5806398427B
:101FE80034D003F58063984230D003F5806398427B
:101FF8002CD003F59033984228D003F5C05398426B
:1020080024D003F58063984220D003F5806398427A
:102018001CD0A3F59E33984218D003F580639842EC
:1020280014D003F58063984210D003F5903398429A
:102038000CD003F58063984208D003F5806398427A
:1020480004D0144840F6582100F0BAFC6B1E9BB22D
:10205800012B10D9042D0ED0082D0CD0102D0AD02C
:10206800202D08D0402D06D0802D04D0094840F6F8
:10207800592100F0A5FC228AA3892B40154202D0E1
:102088001BB9002038BD002038BD012038BD00BF75
:10209800002C0140488D000838B504460D462A4BEF
:1020A800984243D0B0F1804F40D0A3F59433984282
:1020B8003CD003F58063984238D003F5806398429A
:1020C80034D003F58063984230D003F5806398429A
:1020D8002CD003F59033984228D003F5C05398428A
:1020E80024D003F58063984220D003F5806398429A
:1020F8001CD0A3F59E33984218D003F5806398420C
:1021080014D003F58063984210D003F590339842B9
:102118000CD003F58063984208D003F58063984299
:1021280004D00A4840F6822100F04AFC15F47F4F9B
:1021380000D125B9054840F6832100F041FCED4364
:10214800ADB2258238BD00BF002C0140488D000883
:1021580030B587B004460D46654B984213D0A3F5B9
:10216800744398420FD003F5806398420BD003F56F
:102178008063984207D003F58063984203D05D4896
:10218800B82100F01DFC2B68013B5B4A934203D940
:102198005848B92100F014FCAB8833B1B3F5805F1F
:1021A80003D05448BA2100F00BFCEB8863B1B3F5B7
:1021B800805F09D0B3F5005F06D0B3F5405F03D068
:1021C8004C48BB2100F0FCFB2B894BB1B3F5806F69
:1021D80006D0B3F5C06F03D04648BC2100F0F0FB31
:1021E8006A8922F00C039BB203B91AB94148BD2190
:1021F80000F0E6FBAB8963B1B3F5807F09D0B3F596
:10220800007F06D0B3F5407F03D03A48BE2100F0E6
:10221800D7FBAB8973B1364B9C420BD0A3F5744303
:102228009C4207D003F580639C4203D03148C22109
:1022380000F0C6FB238A23F440531B041B0CEA88D6
:1022480013432382A3899BB223F4B05323F00C01D8
:10225800A8882A896B89024313430B43A381A38A65
:1022680023F440731B041B0CAA891343A38201A8FF
:10227800FFF76EF91E4B9C4201D1049B00E0039BC3
:10228800A28912B2002A08DA03EB830303EB830363
:1022980029684900B3FBF1F107E003EB830303EB83
:1022A800830329688900B3FBF1F1144BA3FB0123D5
:1022B80058090501642300FB1313A28912B2002AEE
:1022C80009DAD90032310D4AA2FB0131C1F34212B9
:1022D80042EA050307E01B013233084AA2FB032345
:1022E800C3F343132B439BB2238107B030BD00BF18
:1022F80000380140D88D00081FAA44001F85EB5103
:1023080070B505460C46234B98420CD0A3F5744390
:10231800984208D003F58063984204D01E484FF4D1
:10232800997100F04DFB23883BB1B3F5006F04D0E1
:10233800194840F2331100F043FB63883BB1B3F511
:10234800806F04D014484FF49A7100F039FBA388C9
:102358003BB1B3F5007F04D00F4840F2351100F0CF
:102368002FFBE3883BB1B3F5807F04D00A484FF4D4
:102378009B7100F025FB2B8A23F470631B041B0C54
:1023880026886188A288E08831430A4302431343C0
:102398002B8270BD00380140D88D000838B504463E
:1023A8000D46164B984214D0A3F57443984210D0AA
:1023B80003F5806398420CD003F58063984208D0F7
:1023C80003F58063984204D00D484FF4B17100F0D2
:1023D800F7FA012D04D90A4840F2631100F0F0FA27
:1023E8002DB1A3899BB243F40053A38138BDA389BF
:1023F80023F400531B041B0CA38138BD0038014093
:10240800D88D000870B504460D461646364B9842DE
:1024180014D0A3F57443984210D003F58063984212
:102428000CD003F58063984208D003F58063984286
:1024380004D02E4840F2891100F0C2FA282D1ED08F
:1024480040F227739D421AD040F226639D4216D06F
:1024580040F225539D4212D040F224439D420ED0B3
:1024680040F646039D420AD040F66A139D4206D0C4
:10247800602D04D01D484FF4C57100F0A1FA012E5B
:1024880004D91A4840F28B1100F09AFA40F66A1300
:102498009D420FD1144B9C420CD0A3F574439C422F
:1024A80008D003F580639C4204D0104840F28F1195
:1024B80000F086FAC5F3421205F01F050123AB4070
:1024C800012A01D10C3404E0022A01D1103400E0C1
:1024D80014341EB122681343236070BD226822EAB7
:1024E8000303236070BD00BF00380140D88D000889
:1024F80038B504460D46124B984214D0A3F57443E0
:10250800984210D003F5806398420CD003F580639D
:10251800984208D003F58063984204D0094840F2F5
:102528005F2100F04DFAB5F5007F04D305484FF45C
:10253800187100F045FAC5F30805A58038BD00BF3D
:1025480000380140D88D000810B504460D4B98425C
:1025580014D0A3F57443984210D003F580639842D1
:102568000CD003F58063984208D003F58063984245
:1025780004D005484FF41C7100F022FAA088C0F37B
:10258800080010BD00380140D88D000838B5054650
:102598000C46264B984214D0A3F57443984210D0A9
:1025A80003F5806398420CD003F58063984208D005
:1025B80003F58063984204D01D4840F2863100F04C
:1025C800FFF9012C18D0802C16D0402C14D0202CC8
:1025D80012D0102C10D0B4F5807F0DD0B4F5007F48
:1025E8000AD0082C08D0042C06D0022C04D010489D
:1025F80040F2873100F0E4F9B4F5007F0FD10B4BBE
:102608009D420CD0A3F574439D4208D003F5806326
:102618009D4204D0064840F28B3100F0D1F92B8856
:102628001C4201D0012038BD002038BD00380140CF
:10263800D88D000838B505460C461D4B984214D075
:10264800A3F57443984210D003F5806398420CD0E8
:1026580003F58063984208D003F58063984204D05C
:10266800144840F2B63100F0ABF924F458739BB229
:1026780003B924B90F4840F2B73100F0A1F904F4C6
:1026880000739BB27BB10A4B9D420CD0A3F57443F7
:102698009D4208D003F580639D4204D0054840F26E
:1026A800BB3100F08DF9E443A4B22C8038BD00BFE3
:1026B80000380140D88D000838B505460C463B4B1C
:1026C800984214D0A3F57443984210D003F5806360
:1026D80098420CD003F58063984208D003F58063D4
:1026E800984204D0324840F2D93100F069F9282CD8
:1026F80025D040F227739C4221D040F226639C42A9
:102708001DD040F225539C4219D040F224439C42EC
:1027180015D040F646039C4211D040F66A139C42FD
:102728000DD0B4F5587F0AD0B4F5187F07D0B4F5AA
:10273800B07F04D01E4840F2DA3100F041F940F68B
:102748006A139C420FD1194B9D420CD0A3F57443D8
:102758009D4208D003F580639D4204D0144840F29E
:10276800DE3100F02DF9C4F3421204F01F010123F9
:102778008B40012A03D1AA8992B2134008E0022AA9
:1027880003D12A8A92B2134002E0AA8A92B2134075
:10279800240A0122A240298889B20A4013B11AB931
:1027A800002038BD002038BD012038BD0038014068
:1027B800D88D000838B505460C46244B984214D0ED
:1027C800A3F57443984210D003F5806398420CD067
:1027D80003F58063984208D003F58063984204D0DB
:1027E8001B4840F2224100F0EBF840F226639C427D
:1027F80010D040F225539C420CD040F646039C4230
:1028080008D040F66A139C4204D0114840F2234194
:1028180000F0D6F840F66A139C420FD10B4B9D424C
:102828000CD0A3F574439D4208D003F580639D4204
:1028380004D0074840F2274100F0C2F8240A0123D7
:10284800A340DB439BB22B8038BD00BF003801405A
:10285800D88D000808B500F003F800BFFEE700BFF8
:1028680008B5034802F044FF0120FFF7F7FF00BF57
:102878006C8E000808B50D4B1B6813B90C4A0B4B3E
:102888001A600A4B1A68C31C23F00303134409494E
:102898008B4206D904F07AFE0C2303604FF0FF3018
:1028A80008BD02490B60104608BD00BFEC000020BF
:1028B80018090020004C002001230360014B0B6025
:1028C800704700BF1800002008B504F05FFE5823C9
:1028D80003604FF0FF3008BD08B504F057FE5823D9
:1028E80003604FF0FF3008BD08B504F04FFE5823D1
:1028F8000360002008BD00BF08B504F047FE582358
:1029080003604FF0FF3008BD08B504F03FFE5823C0
:1029180003604FF0FF3008BD002A27DBF8B51746E3
:102928000D4600241EE02E192B570A2B0DD1631ECD
:10293800EB560D2B09D00F480D21FFF7D9FD0D4897
:102948008021FFF723FE0028F9D096F900100948E6
:1029580089B2FFF7CDFD07488021FFF717FE002851
:10296800F9D00134BC42DEDB3846F8BD4FF0FF3009
:10297800704700BF0044004000B583B005460C46D0
:1029880010460AB10A4A00E00A4A00B9094800920A
:102998000190094819462A46234602F0A9FE074B2A
:1029A8005B6813F0010F00D000BEFFF759FF00BFAE
:1029B800808E00088C8E0008908E0008002004E0AD
:1029C80008B503460A460348194602F091FEFFF788
:1029D80047FF00BFC08E000808B500F06BF808BDBF
:1029E80008B500F08FF808BD82B00023019300936A
:1029F8002C4A136843F4803313602A4B1B6803F492
:102A080000330093019B01330193009B1BB9019B89
:102A1800B3F5A06FF1D1234B1B6813F4003F02D02C
:102A28000123009301E000230093009B012B36D182
:102A38001D4B1A6842F010021A601A6822F003024D
:102A48001A601A6842F002021A60A3F580535A68A5
:102A58005A605A685A605A6842F480625A605A68E2
:102A680022F47C125A605A6842F4E8125A601A68D2
:102A780042F080721A600B4B1B6813F0007FFAD08B
:102A8800084B5A6822F003025A605A6842F0020260
:102A98005A60044B5B6803F00C03082BF9D102B0B1
:102AA800704700BF001002400020024008B5FFF741
:102AB8009BFF08BD08B5104B1A6842F001021A6066
:102AC80059680E4A0A405A601A6822F0847222F441
:102AD80080321A601A6822F480221A605A6822F436
:102AE800FE025A604FF41F029A60FFF7DFFF4FF0B3
:102AF8000062034B9A6008BD001002400000FFF816
:102B080000ED00E01F4B5B6803F00C03042B06D0BC
:102B1800082B08D03BBB1C4A1C4B1A6026E01A4AFB
:102B28001A4B1A6022E0174A53685268C3F383436A
:102B3800023312F4803F05D1154A02FB03F3134A0E
:102B4800136013E00F4A526812F4003F05D0104A90
:102B580002FB03F30D4A136008E00B4A02FB03F380
:102B68000A4A136002E0084A084B1A60054B5B6882
:102B7800C3F30313074AD25CD2B204490B68D340AB
:102B88000B6070470010024000127A0030000020ED
:102B980000093D002000002082B00523019302E0D7
:102BA800019B013B0193019B002BF9D102B07047B7
:102BB80008B550B10A4940230B8003238B701023BA
:102BC800CB700848FEF746FB08BD054940230B803B
:102BD80003238B700423CB700248FEF73BFB08BD30
:102BE80010090020000C014008B528B10548402113
:102BF8000122FEF721FC08BD024840210022FEF711
:102C08001BFC08BD000C014008B550B10A498023DF
:102C18000B8003238B701023CB700848FEF71AFB38
:102C280008BD054980230B8003238B700423CB70D8
:102C38000248FEF70FFB08BD10090020000C0140F8
:102C480008B528B1054880210122FEF7F5FB08BD2B
:102C5800024880210022FEF7EFFB08BD000C01406E
:102C680008B504488021FEF78BFB012800D000201E
:102C780008BD00BF000C014008B50020FFF7B4FFF5
:102C88000120FFF795FF0020FFF7BEFF0020FFF7A8
:102C9800D7FF08BD08B50020FFF7A6FFFFF77CFFA8
:102CA8000020FFF7B1FFFFF777FF0120FFF79CFF38
:102CB800FFF772FF0120FFF7A7FFFFF76DFF002066
:102CC800FFF792FF08BD00BF08B50020FFF78CFF93
:102CD8000120FFF799FFFFF75FFF0120FFF784FF4F
:102CE800FFF75AFF0020FFF78FFF08BD38B50446ED
:102CF800082519E00020FFF777FF14F0800F03D0B4
:102D08000020FFF781FF02E00120FFF77DFFFFF7BA
:102D180043FF0120FFF768FF6400E4B2FFF73CFFC0
:102D28000020FFF761FF013D002DE3D10020FFF7F0
:102D38006BFFFFF731FF0120FFF756FFFFF72CFF6E
:102D4800FFF78EFFB0FA80F464090020FFF74CFF0C
:102D5800204638BD70B506460020FFF755FF082508
:102D680000240EE00120FFF73FFF6400E4B2FFF704
:102D780077FF002818BF44F001040020FFF734FF54
:102D8800013D002DEED116B10120FFF73DFF0120D6
:102D9800FFF72AFFFFF700FF0020FFF725FF204677
:102DA80070BD00BF014B0360704700BF108F000863
:102DB80008B50248FFF7F6FF08BD00BFF400002081
:102DC80008B50248FFF7EEFF08BD00BF000100206C
:102DD80008B50248FFF7E6FF08BD00BF0C01002058
:102DE80010B50446FFF7DEFF204604F04BFA2046F4
:102DF80010BD00BF08B50C4B03600023037183604E
:102E0800012905D0022906D041B9084B836008BDC5
:102E1800074B836008BD074B836008BD0648162131
:102E2800064A074BFFF7A8FD108F00080030014045
:102E380000380040003C0040188F0008BC8F000894
:102E4800888F000810B5012815D010B1022824D0A9
:102E580035E0224B1B6813F0010F32D1204C20467D
:102E68000021FFF7C7FF01221C4B1A601D4804F020
:102E780087FB20462AE01C4B1B6813F0010F22D168
:102E88001A4C20460121FFF7B5FF0122164B1A60A4
:102E9800174804F075FB204618E0164B1B6813F022
:102EA800010F12D1144C20460221FFF7A3FF012283
:102EB800104B1A60114804F063FB204606E000201E
:102EC80004E0074802E0094800E00B4828B90C482C
:102ED80045210C4A0C4BFFF74FFD10BD180100208F
:102EE800F4000020B92D00081C010020000100207A
:102EF800C92D0008200100200C010020D92D000850
:102F0800188F0008988F0008888F000803796BBB1A
:102F180030B583B004460121017141F21C00FEF76F
:102F280075FBA268134B9A421AD1E023ADF804301E
:102F380003258DF8065018238DF807300E4C2046CF
:102F480001A9FEF787F91023ADF804308DF8065073
:102F58008DF80730204601A9FEF77CF9012007E02B
:102F680006486D21064A074BFFF706FD002070470B
:102F780003B030BD0030014000080140188F000840
:102F8800EC8E0008888F000808B580680121FEF7DC
:102F9800AFFC08BD08B58068FEF7D0FB08BD00BFD0
:102FA80010B50C460A480221FEF702FD0028F9D0A8
:102FB80007482146FEF7C8FC05480121FEF7F8FC42
:102FC8000028F9D00248FEF7D9FCC0B210BD00BFF6
:102FD8000030014008B503689B68984708BD00BFEA
:102FE800036913B90161012070470020704700BFD1
:102FF80008B550F8043F9B68984708BD10B50446CB
:10300800064B03F108020260303340F8043FFDF735
:1030180085FA034B2360204610BD00BFA890000826
:10302800D88F0008A0F10400FFF7E8BF10B50446E8
:10303800FFF7E4FF204604F025F9204610BD00BF45
:10304800A0F10400FFF7F2BF30B583B00C460B784F
:103058001F2B05D916482221164A174BFFF78CFC5F
:1030680005464FF08040FEF7D7FC2378AB75082063
:103078000121FEF7CBFA4FF44053ADF8043010238A
:103088008DF8073003238DF806300C4C204601A933
:10309800FEF7E0F820464FF480510022FEF7CCF905
:1030A80020464FF400510022FEF7C6F903B030BDA8
:1030B8007091000834910008EC910008000C014060
:1030C80070B50446057D012D02D9022D16D020E0E9
:1030D800061D3046FDF78CFA90F90430012B18D103
:1030E800254655F8043F9B693046984701214FF41F
:1030F800FA622B46FDF7EEFA02250AE0061D304675
:10310800FDF776FA90F90430042B02D13046FDF72A
:103118007FFA25754FF0010070BD00BFA0F10400D3
:10312800FFF7CEBF10B504460F4B40F8043B002113
:10313800FDF730FA0D4B03F108022260303363606B
:1031480000232361237563752022A2752383084B0E
:103158001B682BB107481721074A084BFFF70CFCDF
:10316800034B1C60204610BDD88F0008A8900008AB
:103178002C010020709100080890000814920008A3
:1031880010B50346006928B906487A21064A074B54
:10319800FFF7F2FB0A4618B101680C681946A04708
:1031A80010BD00BF709100081C9300082092000811
:1031B80008B54FF080400121FEF72EFE08BD00BF84
:1031C80008B54FF080400021FEF726FE08BD00BF7D
:1031D80010B582B00446427D1D484FF4805102F07C
:1031E8000102FEF729F9627DA37D9A420DD11848A4
:1031F8004FF400510122FEF71FF902A9022301F83A
:10320800033D2046FFF7BCFF0FE001339A420CD183
:103218000F484FF400510022FEF70EF902A90323CC
:1032280001F8023D2046FFF7ABFF637D1F2B09D94C
:1032380002A9012301F8013D2046FFF7A1FF20461E
:10324800FFF7BEFF637D0133637502B010BD00BF99
:10325800000C014008B5064B186828B90548192123
:10326800054A064BFFF788FBFFF7B2FF08BD00BF12
:103278002C0100202C9200082C900008B89200081D
:1032880010B582B04FF080400121FEF705FF1C23E6
:103298008DF8043000238DF805308DF806300124B0
:1032A8008DF8074001A8FDF7C1FE4FF08040214688
:1032B8002246FEF715FE02B010BD00BF70B588B0FB
:1032C8000D460B882BB92A488E212A4A2A4BFFF72C
:1032D80053FB044603834FF08040FEF79DFB01201B
:1032E8000146FEF7B9F903A8FEF732F9234B5A68ED
:1032F8005B68234A039BA2FB03239B092A8802FBE2
:1033080003F2204BA3FB0213DB0B5E1EB6F5803FD6
:1033180009D2B2FBF3F5B5F5803F0AD35D1CB2FBC9
:10332800F5F51E4605E01248B921124A164BFFF77B
:1033380023FBB5F5803F05D30D48BC210D4A134B3F
:10334800FFF71AFB6846FEF75DFDADF80060002345
:10335800ADF80230ADF80450ADF806304FF08040BB
:103368006946FEF7A1FC2046FFF78AFF08B070BD4A
:1033780070910008F8900008C492000800100240FC
:10338800D34D621001800080888F0008D892000811
:1033980070B582B00446837D1F2B05D914485B2184
:1033A800144A154BFFF7E8FA0E46002502A901F862
:1033B800015DFFF7E5FE2046FFF702FF65750F4840
:1033C8004FF480512A46FEF737F8228B33889A4209
:1033D80004D020463146FFF771FF03E000224FF08A
:1033E80080439A842046FFF7E3FE02B070BD00BF19
:1033F8007091000860900008EC920008000C0140F1
:1034080070B584B004460D46012818D14FF6FF73F5
:10341800994214D1104E96E803008DE803000F4836
:103428009DE80600FDF762F902AB083696E803004E
:1034380083E803000A4893E80600FDF757F944B902
:103448004FF6FF739D4204D1064B054A1360034AA9
:10345800136004B070BD00BFF88F00083001002071
:10346800240100209088000808B501204FF6FF715C
:10347800FFF7C6FF08BD00BF08B500204FF6FF7173
:10348800FFF7BEFF08BD00BF014B0360704700BFD8
:103498007093000810B50446FFF7F6FF204603F0C6
:1034A800F1FE204610BD00BF08B51A4B0360FF238C
:1034B800037100238360022905D917480D21174A93
:1034C800174BFFF759FA022922D8164B53F8213027
:1034D800C3B9144B43F821000171012906D011B179
:1034E800022906D008E0104B836008BD0F4B8360AB
:1034F80008BD0F4B836008BD07482421074A0D4BC0
:10350800FFF73AFA04482921044A0A4BFFF734FA2C
:1035180008BD00BF70930008A49300083494000805
:10352800149400083801002000380140004400408D
:1035380000480040888F000808B580680121FEF720
:103548002DFF012008BD00BF2DE9F04188B00446D9
:10355800037913B10F46022B05D13B4838213B4A6A
:103568003B4BFFF709FA012B6AD105200121FEF731
:103578004DF84FF400300121FEF76EF84FF00408C3
:10358800ADF8008018238DF8033003258DF802501C
:10359800304E30466946FDF75DFE0823ADF8003031
:1035A8008DF803808DF8025030466946FDF752FECB
:1035B8000026ADF80860ADF80A604FF40073ADF866
:1035C8000C30ADF80E60A06802A9FEF799FE26231C
:1035D8008DF804308DF805508DF8066001258DF8BA
:1035E80007500DEB0800FDF721FD0497ADF81460B6
:1035F800ADF81660ADF81860ADF81C600C23ADF896
:103608001A30A06804A9FEF7A3FDA06840F225516E
:10361800FFF7D0F8A06840F22661FFF7CBF8A06862
:1036280040F225512A46FEF7EDFE0B4A93889BB2DD
:1036380043EA080393802046FFF77EFF284600E010
:10364800002008B0BDE8F081A49300087893000832
:10365800888F0008000801400030014070B584B030
:1036680004460D46012818D14FF6FF73994214D12C
:10367800104E96E803008DE803000F489DE8060009
:10368800FDF734F802AB083696E8030083E8030038
:103698000A4893E80600FDF729F844B94FF6FF7386
:1036A8009D4204D1064B054A1360034A136004B0D7
:1036B80070BD00BF589300084C0100204401002051
:1036C8009088000808B501204FF6FF71FFF7C6FF84
:1036D80008BD00BF08B500204FF6FF71FFF7BEFF19
:1036E80008BD00BF084B1B7813F0FF0F0AD1074B2A
:1036F8001B7813F0FF0F00D172B6044A1378013318
:10370800DBB21370704700BF540100205501002040
:10371800074B1B7813F0FF0F09D1064A1378013BBA
:10372800DBB21370137813F0FF0F00D162B6704745
:10373800540100205501002070B584B004460D46A0
:10374800012818D14FF6FF73994214D1104E96E80C
:1037580003008DE803000F489DE80600FCF7C6FF4C
:1037680002AB083696E8030083E803000A4893E8AA
:103778000600FCF7BBFF44B94FF6FF739D4204D126
:10378800064B054A1360034A136004B070BD00BFBE
:10379800509400086001002058010020908800081B
:1037A80008B501204FF6FF71FFF7C6FF08BD00BF3F
:1037B80008B500204FF6FF71FFF7BEFF08BD00BF38
:1037C800007B7047704700BFA0F10400FFF7FABF05
:1037D800704700BFA0F10800FFF7FABF08B5074B14
:1037E80003F10802026003F1400242605C33836027
:1037F80003481C21034A044BFFF7BEF880940008D5
:1038080040950008D8950008888F0008A0F10800A6
:10381800FFF7E4BFA0F10400FFF7E0BF08B50148D7
:10382800FFF7DCFF6801002008B5FFF7D7FF00BFEE
:10383800A0F10800FFF7F8BFA0F10400FFF7F4BFFC
:1038480082B0094B5B680020DAB262F30700C3F369
:10385800072262F30F20C3F3074262F317401B0EDF
:1038680063F31F6002B07047E401002010B582B016
:103878004C1D053A02AB43F8042D1030034922468B
:1038880000F0B4FF012002B010BD00BFEC01002021
:1038980010B582B00446034901AA03F08FFD204603
:1038A80002B010BDB8950008A1F10401FFF7F0BF00
:1038B80010B582B00446034901AA03F07FFD2046F3
:1038C80002B010BDB8950008A1F10401FFF7F0BFE0
:1038D80038B504460B4B40F8043B03F0D3FA0A4BC7
:1038E80003F10802226003F1400262605C33A360C6
:1038F8000025257304F1100000F026FC65672046BA
:1039080038BD00BFB8B100088094000808B5084B5E
:103918001B6813F0010F08D10648FFF7D9FF0122F1
:10392800034B1A60044803F02BFE024808BD00BF91
:10393800F4010020680100202538000870B584B023
:1039480004460D46012818D14FF6FF73994214D149
:10395800104E96E803008DE803000F489DE8060026
:10396800FCF7C4FE02AB083696E8030083E80300C0
:103978000A4893E80600FCF7B9FE44B94FF6FF730E
:103988009D4204D1064B054A1360034A136004B0F4
:1039980070BD00BF68940008EC010020E40100201D
:1039A8009088000810B584680CB903F095FCC468C9
:1039B800A04710BD10B50346426F2AB906485721E3
:1039C800064A074BFEF7D8FF0C466C3019462268AA
:1039D800E368FFF7E7FF10BD40950008F094000882
:1039E800C0950008A0F10800FFF7E4BF10B5044631
:1039F800002383608B6833B1CB68C3608B688360B6
:103A08008B6802229847204610BD00BF30B587B0AA
:103A180000F16C0402AD2846FFF7E8FF95E80300C3
:103A28008DE8030094E8030085E803009DE803009F
:103A380084E80300049AA3680493A260059AE168E5
:103A48000591E2601BB102A801460322984707B01E
:103A580030BD00BF08B501204FF6FF71FFF76EFFBC
:103A680008BD00BF08B500204FF6FF71FFF766FFDD
:103A780008BD00BF38B5037B63B9044600F11005E3
:103A8800284600F07FFC284604F1080100F0E2FA1D
:103A980001232373012038BD014B0360704700BF29
:103AA8003096000810B50446FFF7F6FF204603F0ED
:103AB800E9FB204610BD00BF034A026000220271E4
:103AC80081600273704700BF3096000803793BB9E4
:103AD80010B501240471806800F0B4FF204610BDC1
:103AE8000020704708B583689868FFF759FA08BD41
:103AF80038B50C46612905D131482921314A324B64
:103B0800FEF73AFF0546A02905D12D482A212D4A5E
:103B18002E4BFEF731FF012905D129482B21294ACF
:103B28002B4BFEF729FF29B925482C21254A294B7B
:103B3800FEF722FFA12905D121482D21214A264B34
:103B4800FEF71AFFB02905D11D482E211D4A234B27
:103B5800FEF712FF0223013BFDD12148102100226C
:103B6800FDF76AFCE32C06D8E12C06D2502C0AD0CB
:103B7800602C12D01BE0FF2C19D128462146FFF7F4
:103B8800B1FF044614E028462146FFF7ABFF044680
:103B980028467321FFF7A6FF0AE028462146FFF7CB
:103BA800A1FF2846FF21FFF79DFF044600E00024FF
:103BB8000B4810210122FDF73FFC204638BD00BF0D
:103BC8008497000850970008F89700080C98000898
:103BD8002098000834980008489800086098000861
:103BE8000008014008B5FF21FFF782FF08BD00BFAC
:103BF80008B5FFF7F7FFC0F34200831FDBB2012BC4
:103C080005D80348EB21034A034BFEF7B5FE08BD70
:103C180084970008749A0008888F000838B504460D
:103C28000D46037B8B4205D05021FFF761FF2573BA
:103C3800012038BD002038BD2DE9F04105460F466A
:103C480016460223013BFDD10D4810210022FDF745
:103C5800F3FB2846A021FFF745FF8046002404E037
:103C68002846395DFFF73EFF01343368A342F7D891
:103C7800034810210122FDF7DFFB4046BDE8F08133
:103C88000008014070B50E46A1F10A03DBB2062B0D
:103C980005D810489221104A104BFEF76DFE0546D4
:103CA8000223013BFDD10E4C204610210022FDF7D6
:103CB800C3FB28463146FFF715FF2846FF21FFF7CB
:103CC80011FF0546204610210122FDF7B5FB2846C5
:103CD80070BD00BF84970008749900087C9800089C
:103CE8000008014008B5052905D90848F121084A06
:103CF800084BFEF741FE037B23B91131C9B2FFF728
:103D0800C1FF08BD6021FFF7F3FE08BD84970008D6
:103D1800049A0008BC98000808B51721FFF7B2FFFD
:103D280000F0010008BD00BF08B51721FFF7AAFF82
:103D3800C0F3400008BD00BFF8B50E46A1F10A0364
:103D4800DBB2062B05D81148B521114A114BFEF7F5
:103D580013FE054617460223013BFDD10E4C2046B3
:103D680010210022FDF768FB284646F02001FFF7E6
:103D7800B9FE064628463946FFF7B4FE204610210C
:103D88000122FDF759FB3046F8BD00BF84970008B3
:103D9800009700087C9800080008014070B50546A7
:103DA8000C4616460221FFF76DFF04F03F039C42C4
:103DB80006D0094840F20511084A094BFEF7DCFD18
:103DC80016B12043C2B202E020EA0400C2B228467B
:103DD8000221FFF7B1FF70BD8497000848990008D9
:103DE800CC98000870B505460C4616460121FFF729
:103DF80049FF04F03F039C4206D0094840F21B11DA
:103E0800084A094BFEF7B8FD16B12043C2B202E0DA
:103E180020EA0400C2B228460121FFF78DFF70BDD9
:103E280084970008349A0008CC98000838B50446EE
:103E38000D46037B13B90121FFF7F0FE20461D2133
:103E4800FFF720FF1DB140F00102D2B201E000F0FF
:103E5800FE0220461D21FFF76FFF38BDF8B5064664
:103E68000D460223013BFDD10D4810210022FDF72C
:103E7800E3FA3046A021FFF735FE0746002405E0A7
:103E88002B683046195DFFF72DFE0134EB689C4224
:103E9800F6D3034810210122FDF7CEFA3846F8BDC3
:103EA800000801402DE9F8430D46CB682BB91548A9
:103EB8007E21154A154BFEF75FFD80460223013B24
:103EC800FDD1134810210022FDF7B6FA40466121C2
:103ED800FFF708FE8146002407E0661D2F6840466C
:103EE800FF21FFF7FFFDB8550134EB68053B9C4205
:103EF800F3D3074810210122FDF79EFA4846BDE892
:103F0800F88300BF84970008CC960008EC98000856
:103F180000080140F0B583B00C46A1F10A03DBB2FA
:103F2800062B05D91C48C5211C4A1D4BFEF724FD4C
:103F3800054616460223013BFDD11A4810210022EE
:103F4800FDF77AFA284644F02001FFF7CBFD074633
:103F5800002416E00094032C05D913486821134A5D
:103F6800134BFEF709FD032301939C4201D901ABD2
:103F780000E06B461B68334428461979FFF7B2FD09
:103F88000134032CE6D9074810210122FDF754FA21
:103F9800384603B0F0BD00BF84970008B499000804
:103FA800FC9800080008014018890008409600089D
:103FB8003899000870B584B004460D46012818D118
:103FC8004FF6FF73994214D1104E96E803008DE81E
:103FD80003000F489DE80600FCF788FB02AB083693
:103FE80096E8030083E803000A4893E80600FCF714
:103FF8007DFB44B94FF6FF739D4204D1064B054A39
:104008001360034A136004B070BD00BF189600081F
:1040180000020020F80100209088000808B501205F
:104028004FF6FF71FFF7C6FF08BD00BF08B50020B7
:104038004FF6FF71FFF7BEFF08BD00BF90F82830AC
:104048000BB1022070470120704700BF90F8210093
:10405800704700BF08B5436A43B9416241B9054892
:104068004FF4F571044A054BFEF786FC002008BDA5
:10407800012008BD909B0008489B0008209200087A
:1040880070B50646104B03F10802026003F13C02CA
:1040980042604C33436110F12C0509D000F15C04F7
:1040A800AC4205D054F8083D1B6820469847F7E70E
:1040B80006F11400FCF732FA301DFFF7EDFC034B54
:1040C8003360304670BD00BF789E0008B09A000883
:1040D800A0F11400FFF7D4BFA0F10400FFF7D0BF90
:1040E80010B50446FFF7CCFF204603F0CBF8204676
:1040F80010BD00BFA0F11400FFF7F2BFA0F104004B
:10410800FFF7EEBF10B5047A34B90C4840F2D3116A
:104118000B4A0C4BFEF730FC0A467D290AD890F86A
:1041280021308B4207D080F8211004300521FFF799
:1041380003FE00E00024204610BD00BF909B00084D
:10414800BC9D00080C9C000838B504460546204B69
:1041580045F8043B00F008FC01462846FFF7ACFC94
:1041680004F114000021FCF715FA1A4B03F10802B8
:10417800226003F13C0262604C336361002384F8DF
:104188002030022284F82120636284F82830012339
:1041980084F8293004F12C03052108E00E4A1A603E
:1041A80000221A715A719A71DA7108330139B1F122
:1041B800FF3FF3D1094B1B682BB109481D21094A60
:1041C800094BFEF7D9FB054B1C60204638BD00BFE4
:1041D800B09A0008789E0008908800082C020020F9
:1041E800909B0008949D00081492000830B585B093
:1041F80011200121FDF70AFA04238DF803304FF44A
:10420800007404A921F8104D1248FDF723F8022084
:104218000921FDF773F92046FDF70AF802940025F5
:104228008DF80C500C238DF80D3001248DF80E40BC
:1042380002A8FCF747FF17238DF8043002238DF8F6
:1042480005308DF806508DF8074001A8FCF7EEFE02
:1042580005B030BD0010014038B504460E4B1B6850
:1042680013F0010F0BD10D48002104F11402FCF7E3
:10427800F3F90122084B1A60094803F081F9094D46
:1042880001232B70204650F8143FDB6803499847F8
:1042980000232B7038BD00BF300200201802002018
:1042A800154900085401002008B50A4604301021B9
:1042B800FFF730FE08BD00BF06290DD870B51646B9
:1042C8000C4605460A310430C9B2FFF723FE05EB58
:1042D800C40173680B6370BD704700BF08B5CB1E7F
:1042E800DBB2022B06D9074840F24311064A074BB6
:1042F800FEF742FB8A1E04300321D2B2FFF71CFDF1
:1043080008BD00BF909B0008E09E0008249C0008A0
:1043180008B50430FFF782FC08BD00BF70B5037C08
:1043280033B9144840F25B11134A144BFEF724FBCF
:104338000D461646041D20461D21FFF7A3FC5DB15E
:1043480036B90C4840F261110B4A0D4BFEF714FBCD
:1043580040F00402D2B201E000F0FB0220461D2129
:10436800FFF7EAFC25B120461C213246FFF7E4FCA2
:1043780070BD00BF909B0008509F0008609C00081B
:10438800789C000890F82030002B7DD12DE9F0476B
:1043980082B00446012680F820603C4801F092F97A
:1043A80010203146FDF732F94FF48078ADF80480DB
:1043B80003278DF806704FF0100A8DF807A0DFF874
:1043C800E490484601A9FCF745FF251D2846FFF75C
:1043D8007DFB2F4851463246FDF72EF848464146A8
:1043E8000022FDF729F82846E121FFF781FB28463E
:1043F800E221FFF77DFB284607217022FFF79CFC8E
:1044080020460421FFF76AFF28463946FFF73AFCA1
:10441800022805D01F484D211F4A204BFEF7ACFA51
:1044280020460121FFF774FF204601210322FFF7F0
:1044380075FF28461D21FFF725FC10F0040F05D154
:1044480014485121144A164BFEF796FA28460121C2
:10445800FFF7ECFC284600210822FFF76DFC2368D3
:104468005B6A204698472046FFF7C0FE23689B6991
:1044780020460221984723681B6920460221984755
:10448800012002B0BDE8F08701207047849C000835
:1044980000080140909B00081C9F0008A09C000891
:1044A800F09C00080010014038B50D4690F82830FF
:1044B8008B4226D080F82810041D20460021FFF7E3
:1044C800E1FB02468DB140F0030220460021D2B242
:1044D800FFF732FC0C484FF480710122FCF7ACFF67
:1044E80042F21073013BFDD10BE02046002102F09F
:1044F800FD02FFF721FC04484FF480710022FCF70D
:104508009BFF012038BD00BF0010014008B5037AA9
:1045180033B9074840F28D11064A074BFEF72CFACB
:10452800022914BF00210121FFF7BEFF08BD00BF0B
:10453800909B0008509D00080C9C000810B5041DB5
:1045480020460021FFF79EFB00F0FE0220460021D6
:10455800FFF7F2FB10BD00BF70B582B00446037AC6
:1045680033B91C484FF4FB711B4A1C4BFEF704FA85
:104578000D46CB6833B917484FF4FD71164A184BEE
:10458800FEF7FAF9684602F0FBFA20466946FFF79B
:104598008BFE144B0093284602F0A2FB124E3046C5
:1045A8004FF480710022FCF747FF201D2946FFF7D2
:1045B80055FC2046FFF7C2FF30464FF480710122B8
:1045C800FCF73AFF42F21073013BFDD1012002B023
:1045D80070BD00BF909B00088C9F00080C9C0008D1
:1045E800888F0008908800080010014010B5041D4D
:1045F80020460021FFF746FB40F00102204600213B
:10460800D2B2FFF799FB10BD70B582B00446051D04
:10461800284601210A46FFF7C1FB20460021134A1C
:10462800FFF74AFE284601210022FFF7DBFB284658
:1046380002210022FFF7B2FB0D4E2046012132462F
:10464800FFF73AFE284602210022FFF7CBFB094D6F
:1046580000957368019320466946FFF725FE00958B
:104668002046FFF7C3FF02B070BD00BF1002002054
:104678000802002090880008037A13B94FF002005E
:1046880070472DE9F04184B00746041D2046FFF726
:10469800A9FA054610F0010F55D02046E121FFF791
:1046A80027FA50E02046FFF7A3FA0646052842D825
:1046B80020463146FFF716FB8046002837D068466B
:1046C80008F1050102F096FA07EBC6062C36009BA6
:1046D8002BB941488321414A414BFEF74DF90BB1B3
:1046E80072681A6004AE56F8103D83F804802046BC
:1046F8003146FFF7D7FB304602F0F2FA786A18B174
:1047080003689B6869469847019EA6B17368013B98
:10471800736083B933689B6830469847B368013B38
:10472800B36043B93368DB683046984703E02046F6
:10473800E221FFF7DDF945F0400220460721D2B219
:10474800FFF7FAFA05462046FFF7E6FA0028A9D04F
:104758002046FFF747FA054610F0200F0FD040F02B
:10476800200220460721D2B2FFF7E6FA0546786A0A
:104778000368DB68012198473846FFF737FF15F0D3
:10478800100F13D02046E121FFF7B2F945F01002CF
:1047980020460721D2B2FFF7CFFA0546786A0368A8
:1047A800DB68032198473846FFF720FF2046FFF7CC
:1047B800BBFA034620B115F0400F02D0002300E0F9
:1047C80000231BB12046E221FFF792F94FF00100C8
:1047D80004B0BDE8F08100BF18890008109E0008E9
:1047E8004C9D0008A0F11400FFF746BFF0B583B058
:1047F80004461D46037A33B91C4840F215211C4A69
:104808001C4BFEF7B9F817462B6833B9174840F226
:104818001921174A184BFEF7AFF8184E00964B6847
:1048280001936946FFF740FD00963846294602F095
:104838003BFA134E30464FF480710022FCF7FCFD22
:10484800201D39462A46FFF7F7F92046FFF776FE7E
:1048580030464FF480710122FCF7EEFD42F21073EE
:10486800013BFDD1012003B0F0BD00BF909B0008C3
:10487800F09A00080C9C0008888F000890880008AF
:104888000010014070B584B004460D46012818D1C7
:104898004FF6FF73994214D1104E96E803008DE845
:1048A80003000F489DE80600FBF720FF02AB08361F
:1048B80096E8030083E803000A4893E80600FBF73C
:1048C80015FF44B94FF6FF739D4204D1064B054AC4
:1048D8001360034A136004B070BD00BFD89A000883
:1048E80008020020100200209088000808B5012066
:1048F8004FF6FF71FFF7C6FF08BD00BF08B50020DF
:104908004FF6FF71FFF7BEFF08BD00BF08B50248AC
:10491800FBF792FE08BD00BF18020020014B0360A0
:10492800704700BFD89F000808B50248FFF7F6FF98
:1049380008BD00BF3802002010B50446FFF7EEFF9F
:10494800204602F09FFC204610BD00BF10B504466B
:10495800044B036000202071FEF774FAA060204623
:1049680010BD00BFD89F000808B5084B1B6813F09E
:10497800010F08D10648FFF7E9FF0122034B1A602F
:10498800044802F0FDFD024808BD00BF34020020C3
:10499800380200203149000810B586B00446806806
:1049A800FEF7F8FA0023ADF804304FF48272ADF840
:1049B8000620ADF808300222ADF80A200122ADF831
:1049C8000C204FF40072ADF80E20ADF81030ADF8A1
:1049D80012300723ADF81430044801A9FCF7F2FEA1
:1049E800A068FEF7D1FA06B010BD00BF0030014044
:1049F80010B586B004468068FEF7CCFA0023ADF8FF
:104A080004304FF48272ADF80620ADF80830ADF8E6
:104A18000A30ADF80C304FF40072ADF80E202022A9
:104A2800ADF81020ADF812300723ADF81430044863
:104A380001A9FCF7C7FEA068FEF7A6FA06B010BDEC
:104A48000030014038B5037953B904460125057192
:104A58008068FEF75BFA2046FFF7CAFF284638BD94
:104A6800002038BD014B0360704700BFE89F000875
:104A780010B50446FFF7F6FF204602F003FC204677
:104A880010BD00BF024A02600022027181607047B7
:104A9800E89F000803793BB910B5012404718068C8
:104AA800FFF7D0FF204610BD0020704708B580688A
:104AB800FFF772FF08BD00BF08B58068FFF798FFD1
:104AC80008BD00BF38B505460C460548042100223C
:104AD800FCF7B2FCAB6898682146FEF761FA38BD6E
:104AE800000C014038B505460C4605480421012252
:104AF800FCF7A2FCAB6898682146FEF751FA38BD6E
:104B0800000C0140704700BF704700BF704700BFEE
:104B1800704700BF704700BF704700BF704700BFB5
:104B2800704700BF704700BF5422026030224260C5
:104B3800704700BF012070470120704730B40C68EF
:104B4800542C26DC4B68302B23DC1946002B00DA6A
:104B5800D91DC910542505FB01410F4C234003D52D
:104B6800013B63F0070301334418247CB2F1FF3F93
:104B780006D1DBB2012202FA03F324EA030406E0B9
:104B8800012A04D1DDB20123AB401C43E4B2014445
:104B98000C7430BC704700BF0700008010B5044695
:104BA800064B03F108020260583340F8043FFFF750
:104BB80059FF034B2360204610BD00BFA0A000088A
:104BC800F89F0008A0F10400FFF7E8BF10B50446FD
:104BD800FFF7E4FF204602F055FB204610BD00BF5A
:104BE800A0F10400FFF7F2BF82B000230193022373
:104BF8008DF80430019802B0704700BF08B5103036
:104C080000214FF4FC7202F00BFD08BD10B50C68D2
:104C1800532C05DD16486121164A174BFDF7ACFEEB
:104C28004B682F2B05DD12486221124A134BFDF702
:104C3800A3FE1A46002B00DADA1DD110542202FB1B
:104C480001420F490B4003D5013B63F007030133D1
:104C5800DBB2012101FA03F3DBB21044027C1A40F3
:104C68009A4201D1084600E0FF2040B210BD00BFC3
:104C780000A1000850A000087CA100088CA1000831
:104C880007000080F0B583B0054616461F460C465F
:104C980000294AD02748A721274A284BFDF76CFE50
:104CA800A308274AA2FB03239A08542101FB1242B6
:104CB8009B08009201932B68DB6928466946984750
:104CC800012816D1009B5421019A01FB0233194691
:104CD800002B00DAD91DC9101A4A134003D5013B2D
:104CE80063F007030133012202FA03F3725C1343F2
:104CF8007354B0F1FF3F17D1009B5421019A01FB77
:104D080002331A46002B00DADA1DD2100D490B4087
:104D180003D5013B63F007030133012101FA03F3D3
:104D2800B15C21EA0303B3540134BC42B8D303B0E5
:104D3800F0BD00BF00A10008BCA10008A0A10008A8
:104D4800310CC3300700008038B504460546084BCF
:104D580045F8043BFFF708FE01462846FFF792FE98
:104D6800044B03F10802226058336360204638BDC3
:104D7800F89F0008A0A0000808B509B1002200E0CB
:104D8800012202488021FCF757FB08BD00100140B2
:104D980008B509B1002200E0012203484FF4806100
:104DA800FCF74AFB08BD00BF0010014070B505467E
:104DB8000E46041D2046FFF779FE28460121FFF71D
:104DC800E7FF20462121FFF77DFE204646F08001BF
:104DD800FFF778FE20462021FFF774FE28460021C1
:104DE800FFF7D6FF2046FFF767FE70BD38B50546CA
:104DF800041D2046FFF75AFE28460121FFF7C8FF89
:104E080020462121FFF75EFE2046C821FFF75AFE03
:104E180020460621FFF756FE20461321FFF752FED3
:104E280020462021FFF74EFE20460821FFF74AFEC4
:104E380020460C21FFF746FE28460021FFF7A8FF71
:104E48002046FFF739FE38BD70B50646051D2846D1
:104E5800FFF72CFE30460121FFF79AFF28468021F4
:104E6800FFF730FE28464021FFF72CFE002405E01E
:104E780033192846197CFFF735FE0134B4F5FC7F59
:104E8800F6DB30460021FFF783FF2846FFF714FEC4
:104E980070BD00BF2DE9F04182B004461020012109
:104EA800FCF7B4FB201DFFF7F5FD0427ADF80470EF
:104EB80003268DF8066010258DF80750DFF89080DE
:104EC80040460DEB0701FCF7C5F94046394601227B
:104ED800FCF7B2FA4FF49063ADF804308DF8066031
:104EE8008DF80750194D28460DEB0701FCF7B2F96C
:104EF80028464FF480610122FCF79EFA284680215B
:104F08000122FCF799FA20460121FFF735FF4FF4FB
:104F1800FA6300E013465A1E002BFBD120460021FD
:104F2800FFF72AFF2046FFF761FF20464521FFF7DC
:104F38003DFF23685B6A20464FF0FF3198472046C3
:104F4800FFF782FF012002B0BDE8F08100100140A8
:104F5800000C01402DE9F04383B005460F46914609
:104F68009846CE00344629E0A308194AA2FB03322A
:104F78009308542101FB1343920800930192286877
:104F8800D0F820C001FB02331A46002B00DADA1DE4
:104F9800C7EBE20219F802100E4A134003D5013B91
:104FA80063F007030133012202FA03F30B4200D135
:104FB800FF222846694652B2E047013406EB08034F
:104FC800A342D1D82846FFF73FFF03B0BDE8F083DE
:104FD800310CC3300700008070B584B004460D461C
:104FE800012818D14FF6FF73994214D1104E96E854
:104FF80003008DE803000F489DE80600FBF776FBE9
:1050080002AB083696E8030083E803000A4893E8F1
:105018000600FBF76BFB44B94FF6FF739D4204D1C2
:10502800064B054A1360034A136004B070BD00BF05
:1050380040A000084C02002044020020908800088C
:1050480008B501204FF6FF71FFF7C6FF08BD00BF86
:1050580008B500204FF6FF71FFF7BEFF08BD00BF7F
:1050680010B50446044B03F108020260583343604C
:10507800FFF794FD204610BD20A20008A0F104000F
:10508800FFF7EEBF10B50446FFF7EAFF204602F02F
:10509800F9F8204610BD00BFA0F10400FFF7F2BFE9
:1050A80010B50446FFF750FE034B03F108022260D7
:1050B80058336360204610BD20A2000870B584B044
:1050C80004460D46012818D14FF6FF73994214D1B2
:1050D800104E96E803008DE803000F489DE806008F
:1050E800FBF704FB02AB083696E8030083E80300ED
:1050F8000A4893E80600FBF7F9FA44B94FF6FF733C
:105108009D4204D1064B054A1360034A136004B05C
:1051180070BD00BF08A200085C02002054020020F5
:105128009088000808B501204FF6FF71FFF7C6FF09
:1051380008BD00BF08B500204FF6FF71FFF7BEFF9E
:1051480008BD00BF08B5FFF7A5FE08BD00B587B0CC
:10515800014601A8002200F0B9FD01A84FF0FF3177
:1051680001F022F901A800F0E5FE01A800F0F4FE24
:1051780007B05DF804FB00BFF0B58BB005460E46DE
:1051880017461C4668462946002200F09FFD6846DF
:10519800294600F0F5FEE4000597069407A8314675
:1051A80008AA02F00BF9684605A907AA012300F02E
:1051B800F5FE07980C38094B984207D083685A1EA9
:1051C8008260002B02DC09A902F0D0F8684600F0E2
:1051D800B1FE684600F0C0FE0BB0F0BD000800202C
:1051E80070B586B004460E46154601A82146002231
:1051F80000F06CFD01A8214600F0C2FE01A831466E
:105208002A46012300F060FF01A800F093FE01A8E0
:1052180000F0A2FE06B070BD10B582B008200121D2
:10522800FCF7F4F92024ADF8044028238DF8073062
:1052380003238DF806300C4801A9FCF70BF8FDF79D
:105248001BFD0DF103000F2100F0D2F8C720214605
:1052580000F0B4F85820212100F0B0F800202221F5
:1052680000F0ACF802B010BD000C01402DE9F04789
:1052780082B082468946904600242546264627461F
:1052880025E001A8282100F0B3F80DF10500292137
:1052980000F0AEF8BDF904301F4401A82A2100F03F
:1052A800A7F80DF105002B2100F0A2F8BDF9043094
:1052B8001E4401A82C2100F09BF80DF105002D21BA
:1052C80000F096F8BDF904301D440134E4B2002C16
:1052D800D7D0AAF80070A9F80060A8F8005002B06A
:1052E800BDE8F08708B5064B1B782BB10548882127
:1052F800054A064BFDF740FBFFF78EFF012008BD6E
:1053080074020020B8A2000890A20008888F000844
:1053180070B584B004460D46012818D14FF6FF73C6
:10532800994214D1104E96E803008DE803000F4807
:105338009DE80600FBF7DAF902AB083696E80300A9
:1053480083E803000A4893E80600FBF7CFF944B95D
:105358004FF6FF739D4204D1064B054A1360034A7A
:10536800136004B070BD00BF80A200086C0200206A
:10537800640200209088000808B501204FF6FF71EC
:10538800FFF7C6FF08BD00BF08B500204FF6FF7144
:10539800FFF7BEFF08BD00BF38B5054642F21074DE
:1053A800FDF778FC013C06D02846FDF79FFC012854
:1053B800F6D1002038BD012038BD00BF38B50546FC
:1053C8000C463A20FFF7E8FF012810D0E0B2FDF7BD
:1053D8008DFC012808D12846FDF788FC012805D155
:1053E800FDF772FC002038BD012038BD012038BD12
:1053F80038B505460C463A20FFF7CEFF012812D0F3
:10540800E0B2FDF773FC01280CD1FDF743FC3B200B
:10541800FDF76CFC0020FDF79DFC2870FDF754FC9F
:10542800002038BD012038BD08B54FF44070FBF7A7
:10543800DDFD00F0FFF808BD70B584B004460D46E8
:10544800012818D14FF6FF73994214D1104E96E8EF
:1054580003008DE803000F489DE80600FBF746F9B6
:1054680002AB083696E8030083E803000A4893E88D
:105478000600FBF73BF944B94FF6FF739D4204D190
:10548800064B054A1360034A136004B070BD00BFA1
:1054980034A30008800200207802002090880008C9
:1054A80008B501204FF6FF71FFF7C6FF08BD00BF22
:1054B80008B500204FF6FF71FFF7BEFF08BD00BF1B
:1054C80070B584B004460D46012818D14FF6FF7315
:1054D800994214D1104E96E803008DE803000F4856
:1054E8009DE80600FBF702F902AB083696E80300D0
:1054F80083E803000A4893E80600FBF7F7F844B985
:105508004FF6FF739D4204D1064B054A1360034AC8
:10551800136004B070BD00BF4CA3000890020020C7
:10552800880200209088000808B501204FF6FF7116
:10553800FFF7C6FF08BD00BF08B500204FF6FF7192
:10554800FFF7BEFF08BD00BF10B50446044B03605B
:10555800044B40F8083FFAF7E1FF204610BD00BFB2
:1055680018A40008588A000810B50446FFF7ECFF95
:10557800204601F087FE204610BD00BF10B5044646
:10558800044B03600021017108302246FBF716FD29
:10559800204610BD18A400080379FBB930B583B0C4
:1055A8000124047110202146FCF730F80C4D2846E0
:1055B8004FF480512246FBF73FFF4FF48053ADF87C
:1055C800043010238DF8073003238DF80630284661
:1055D80001A9FBF73FFE012003B030BD0120704751
:1055E8000010014008B50830FBF7FCFC08BD00BFFF
:1055F80008B503792BB90B4834210B4A0B4BFDF73F
:10560800BBF969B932B10A484FF480510022FBF75F
:1056180013FF08BD06484FF480510122FBF70CFF29
:1056280008BD00BF8CA3000864A30008FCA3000801
:105638000010014008B50A4B1B6813F0010F09D18F
:1056480008480121FDF730FF0122054B1A60064882
:1056580001F096FF03484FF4E131FDF775FF08BDEF
:1056680098020020AC030020AD57000838B5044666
:105678000D4602F086F985B1431EE3560A2B0CD07D
:105688000D232354431C0022E254FE280DDD094853
:105698003621094A094BFDF76FF9FF2805DD054852
:1056A8003B21054A064BFDF767F9204602F0B8F89A
:1056B80038BD00BF34A40008D0A400089CA400088A
:1056C800B8A400080FB410B582B004AA52F8041B9D
:1056D8000192064C204602F075F920460121FFF799
:1056E800C5FF02B0BDE8104004B070479C0200201E
:1056F8000FB410B582B004AA52F8041B0192064CEC
:10570800204602F05FF920460121FFF7AFFF02B003
:10571800BDE8104004B070479C02002070B584B00A
:1057280004460D46012818D14FF6FF73994214D14B
:10573800104E96E803008DE803000F489DE8060028
:10574800FAF7D4FF02AB083696E8030083E80300B3
:105758000A4893E80600FAF7C9FF44B94FF6FF7301
:105768009D4204D1064B054A1360034A136004B0F6
:1057780070BD00BF20A40008A40300209C030020E3
:105788009088000808B501204FF6FF71FFF7C6FFA3
:1057980008BD00BF08B500204FF6FF71FFF7BEFF38
:1057A80008BD00BF08B50248FDF76EFE08BD00BF82
:1057B800AC030020704700BF08B5064B1B682BB12F
:1057C80005481021054A064BFDF7D6F8014B18602D
:1057D80008BD00BF5806002070A50008E4A6000810
:1057E8001492000808B5084B1B6813F0010F08D184
:1057F800064801F02FFC0122034B1A60044801F00F
:10580800BFFE024808BD00BFB8030020F403002013
:10581800C55A000808B5064B1B6813F0010F05D1DF
:105828000122034B1A60034801F0AAFE024808BD92
:1058380014040020BD5700082804002008B5084BB0
:105848001B6813F0010F08D1064800F0CBFE0122B7
:10585800034B1A60044801F093FE024808BD00BFDC
:10586800F0030020BC030020D55A000808B5084BF7
:105878001B6813F0010F08D10648FFF711FC01223D
:10588800034B1A60044801F07BFE024808BD00BFC4
:10589800EC03002030040020E55A000808B5084B46
:1058A8001B6813F0010F08D10648FFF767FE0122B5
:1058B800034B1A60044801F063FE024808BD00BFAC
:1058C8002C04002038060020F55A000870B594B062
:1058D8000446FFF7A9FD4848FFF7F4FE474E304657
:1058E800FFF7F0FE464D47482946FFF7EBFE4648CE
:1058F8004649474AFFF7E6FE3046FFF7E3FE2046F3
:10590800FFF7CCFFFFF748FE2046FFF783FFFFF7BE
:10591800E9FC2046FFF766FF01F0BCFB2046FFF7D5
:105928008DFF3C4900F0CCFE2046FFF79FFF03683F
:105938001B6998472046FFF799FFFFF707FC2046A9
:10594800FFF794FF294616220023FFF715FC20468F
:10595800FFF78CFF0546304A0EAB92E8030083E858
:1059680003008DE80300022905D02C483E212C4A6B
:105978002C4BFDF701F8009B1A780C925B780D937D
:1059880012AB294A92E8030083E8030002AA82E8DE
:105998000300039B022B05D020483E21204A214BBF
:1059A800FCF7EAFF029B1A7810925B78119328465D
:1059B8000CA910AAFFF714FC04A81C49154B1A7867
:1059C80001F078FF2046FFF751FF04A900220223C7
:1059D800FFF7D2FB2046FFF761FFFFF703FE2046E3
:1059E800FFF72CFF00F0AAFE2046FFF7FBFE01F0B0
:1059F8005DFB14B070BD00BF8C8E0008A0A5000828
:105A0800FCA50008D0A5000804A6000824A60008E4
:105A180030A6000834000020FCA400083CA60008BA
:105A280028A50008C4A6000804A50008D8A60008F0
:105A380070B584B004460D4601281AD14FF6FF739D
:105A4800994216D1114E06F1100292E803008DE832
:105A580003000F489DE80600FAF748FE02AB183627
:105A680096E8030083E803000A4893E80600FAF77B
:105A78003DFE44B94FF6FF739D4204D1064B054ADB
:105A88001360034A136004B070BD00BFFCA4000893
:105A980020040020180400209088000808B5012080
:105AA8004FF6FF71FFF7C4FF08BD00BF08B500201F
:105AB8004FF6FF71FFF7BCFF08BD00BF08B50248ED
:105AC80001F07AFA08BD00BFF403002008B50248C7
